:04000000A5EF04F074
:0B06000000783D00793D007A3D0000CD
:10060C00000E236E400E226E000E0F013A6F800E0C
:10061C000E6E250E0F6E000E106E000E116E26EC77
:10062C0004F0B2EC04F0000E6EEC04F001C024F007
:10063C0002C025F0010E016E060E026E8FEC04F066
:10064C0024C008F025C009F077EC03F0070E216EEA
:10065C00170E206E6A0EE82EFED7202EFCD7212E08
:10066C00FAD700D0010E6EEC04F001C026F002C0E7
:10067C0027F0040E016E060E026E8FEC04F026C0FD
:10068C0008F027C009F077EC03F0070E216E170E67
:10069C00206E6A0EE82EFED7202EFCD7212EFAD71C
:1006AC0000D0020E6EEC04F001C028F002C029F05C
:1006BC00070E016E060E026E8FEC04F028C008F0D7
:1006CC0029C009F077EC03F0070E216E170E206E8F
:1006DC006A0EE82EFED7202EFCD7212EFAD700D09A
:1006EC00A2D7000E1E6E1E50010D0E0EF324D96EF5
:1006FC00000EF420DA6E08C001F009C002F0000E02
:10070C00046E0A0E036E4DEC04F00150300FDF6ED8
:10071C0008C001F009C002F0000E046E0A0E036E50
:10072C00FDEC03F001C008F002C009F01E2A0850CD
:10073C000910D8A4D8D71EC01FF01F50D8B412006F
:10074C00FF0E0A6EFF0E0B6E1F500C6E0D6A0A50D8
:10075C000C260B500D220E0E0C24D96E000E0D2003
:10076C00DA6EDF50ACEC04F01F06E7D7000E096E12
:10077C00000E0A6E000E0B6E000E0C6E055006106D
:10078C0007100810D8B42AD0010E0D6E06D0D890E0
:10079C0005360636073608360D2A08AEF8D7D89037
:1007AC0009360A360B360C360550015C06500258D9
:1007BC000750035808500458D8A009D00550015EC2
:1007CC000650025A0750035A0850045A0980D89010
:1007DC0008320732063205320D2EE1D709C001F07E
:1007EC000AC002F00BC003F00CC004F01200000EA3
:1007FC00066E000E056E03500410D8B41CD0010E0A
:10080C00076E04D0D89003360436072A04AEFAD704
:10081C00D890053606360350015C04500258D8A017
:10082C0005D00350015E0450025A0580D890043262
:10083C000332072EEDD705C001F006C002F01200FE
:10084C00000EAC6E000EAB6EAC98B886AB8EAB885F
:10085C00AC84AC8A000E016E090E026E3D0E036E66
:10086C00000E046E0EC005F00FC006F010C007F0AD
:10087C0011C008F0BCEC03F0FF0E0124126EFF0E49
:10088C000220136E1350B06E12C0AFFF1200035053
:10089C000410D8B418D0010E056E04D0D8900336CD
:1008AC000436052A04AEFAD70350015C04500258F2
:1008BC00D8A004D00350015E0450025AD8900432E0
:1008CC000332052EF1D701C001F002C002F0120074
:1008DC00046E050E046405D0000E026E000E016E4F
:1008EC001200000EC26EC2800444E846FC0BC21219
:1008FC000B0E036E620EE82EFED7032EFCD700D033
:10090C00C282C2B2FED7C290C3CF01F0C4CF02F0F4
:10091C0012000BD09EA8FED701C0F6FF02C0F7FF55
:10092C000800F5CFADFF014A022A01C0F6FF02C054
:10093C00F7FF0800F5500009D8B41200EBD7000EF1
:10094C00F86E060EF76E000106EF03F0016E9EA81E
:10095C00FED701C0ADFF1200000EC16E8A0EC06E34
:02096C00120077
:020000040020DA
:08000000FFFFFFFFFFFFFFFF00
:020000040030CA
:0E000000FF031F3CFFB580FF0FC00FE00F4055
:00000001FF
